{
    "contractName": "AssetBundleTokens",
    "abi": [
        {
            "inputs": [],
            "stateMutability": "nonpayable",
            "type": "constructor"
        },
        {
            "anonymous": false,
            "inputs": [
                {
                    "indexed": true,
                    "internalType": "address",
                    "name": "account",
                    "type": "address"
                },
                {
                    "indexed": true,
                    "internalType": "address",
                    "name": "operator",
                    "type": "address"
                },
                {
                    "indexed": false,
                    "internalType": "bool",
                    "name": "approved",
                    "type": "bool"
                }
            ],
            "name": "ApprovalForAll",
            "type": "event"
        },
        {
            "anonymous": false,
            "inputs": [
                {
                    "indexed": true,
                    "internalType": "address",
                    "name": "previousOwner",
                    "type": "address"
                },
                {
                    "indexed": true,
                    "internalType": "address",
                    "name": "newOwner",
                    "type": "address"
                }
            ],
            "name": "OwnershipTransferred",
            "type": "event"
        },
        {
            "anonymous": false,
            "inputs": [
                {
                    "indexed": false,
                    "internalType": "address",
                    "name": "account",
                    "type": "address"
                }
            ],
            "name": "Paused",
            "type": "event"
        },
        {
            "anonymous": false,
            "inputs": [
                {
                    "indexed": true,
                    "internalType": "bytes32",
                    "name": "role",
                    "type": "bytes32"
                },
                {
                    "indexed": true,
                    "internalType": "bytes32",
                    "name": "previousAdminRole",
                    "type": "bytes32"
                },
                {
                    "indexed": true,
                    "internalType": "bytes32",
                    "name": "newAdminRole",
                    "type": "bytes32"
                }
            ],
            "name": "RoleAdminChanged",
            "type": "event"
        },
        {
            "anonymous": false,
            "inputs": [
                {
                    "indexed": true,
                    "internalType": "bytes32",
                    "name": "role",
                    "type": "bytes32"
                },
                {
                    "indexed": true,
                    "internalType": "address",
                    "name": "account",
                    "type": "address"
                },
                {
                    "indexed": true,
                    "internalType": "address",
                    "name": "sender",
                    "type": "address"
                }
            ],
            "name": "RoleGranted",
            "type": "event"
        },
        {
            "anonymous": false,
            "inputs": [
                {
                    "indexed": true,
                    "internalType": "bytes32",
                    "name": "role",
                    "type": "bytes32"
                },
                {
                    "indexed": true,
                    "internalType": "address",
                    "name": "account",
                    "type": "address"
                },
                {
                    "indexed": true,
                    "internalType": "address",
                    "name": "sender",
                    "type": "address"
                }
            ],
            "name": "RoleRevoked",
            "type": "event"
        },
        {
            "anonymous": false,
            "inputs": [
                {
                    "indexed": true,
                    "internalType": "address",
                    "name": "operator",
                    "type": "address"
                },
                {
                    "indexed": true,
                    "internalType": "address",
                    "name": "from",
                    "type": "address"
                },
                {
                    "indexed": true,
                    "internalType": "address",
                    "name": "to",
                    "type": "address"
                },
                {
                    "indexed": false,
                    "internalType": "uint256[]",
                    "name": "ids",
                    "type": "uint256[]"
                },
                {
                    "indexed": false,
                    "internalType": "uint256[]",
                    "name": "values",
                    "type": "uint256[]"
                }
            ],
            "name": "TransferBatch",
            "type": "event"
        },
        {
            "anonymous": false,
            "inputs": [
                {
                    "indexed": true,
                    "internalType": "address",
                    "name": "operator",
                    "type": "address"
                },
                {
                    "indexed": true,
                    "internalType": "address",
                    "name": "from",
                    "type": "address"
                },
                {
                    "indexed": true,
                    "internalType": "address",
                    "name": "to",
                    "type": "address"
                },
                {
                    "indexed": false,
                    "internalType": "uint256",
                    "name": "id",
                    "type": "uint256"
                },
                {
                    "indexed": false,
                    "internalType": "uint256",
                    "name": "value",
                    "type": "uint256"
                }
            ],
            "name": "TransferSingle",
            "type": "event"
        },
        {
            "anonymous": false,
            "inputs": [
                {
                    "indexed": false,
                    "internalType": "string",
                    "name": "value",
                    "type": "string"
                },
                {
                    "indexed": true,
                    "internalType": "uint256",
                    "name": "id",
                    "type": "uint256"
                }
            ],
            "name": "URI",
            "type": "event"
        },
        {
            "anonymous": false,
            "inputs": [
                {
                    "indexed": false,
                    "internalType": "address",
                    "name": "account",
                    "type": "address"
                }
            ],
            "name": "Unpaused",
            "type": "event"
        },
        {
            "inputs": [],
            "name": "DEFAULT_ADMIN_ROLE",
            "outputs": [
                {
                    "internalType": "bytes32",
                    "name": "",
                    "type": "bytes32"
                }
            ],
            "stateMutability": "view",
            "type": "function"
        },
        {
            "inputs": [],
            "name": "MINTER_ROLE",
            "outputs": [
                {
                    "internalType": "bytes32",
                    "name": "",
                    "type": "bytes32"
                }
            ],
            "stateMutability": "view",
            "type": "function"
        },
        {
            "inputs": [],
            "name": "PAUSER_ROLE",
            "outputs": [
                {
                    "internalType": "bytes32",
                    "name": "",
                    "type": "bytes32"
                }
            ],
            "stateMutability": "view",
            "type": "function"
        },
        {
            "inputs": [
                {
                    "internalType": "string",
                    "name": "assetBundleID",
                    "type": "string"
                },
                {
                    "internalType": "uint256",
                    "name": "initialSupply",
                    "type": "uint256"
                }
            ],
            "name": "addAssetBundleID",
            "outputs": [],
            "stateMutability": "nonpayable",
            "type": "function"
        },
        {
            "inputs": [],
            "name": "assetBundleIDCounter",
            "outputs": [
                {
                    "internalType": "uint256",
                    "name": "",
                    "type": "uint256"
                }
            ],
            "stateMutability": "view",
            "type": "function"
        },
        {
            "inputs": [],
            "name": "assetBundlePrice",
            "outputs": [
                {
                    "internalType": "uint256",
                    "name": "",
                    "type": "uint256"
                }
            ],
            "stateMutability": "view",
            "type": "function"
        },
        {
            "inputs": [
                {
                    "internalType": "address",
                    "name": "account",
                    "type": "address"
                },
                {
                    "internalType": "uint256",
                    "name": "id",
                    "type": "uint256"
                }
            ],
            "name": "balanceOf",
            "outputs": [
                {
                    "internalType": "uint256",
                    "name": "",
                    "type": "uint256"
                }
            ],
            "stateMutability": "view",
            "type": "function"
        },
        {
            "inputs": [
                {
                    "internalType": "address[]",
                    "name": "accounts",
                    "type": "address[]"
                },
                {
                    "internalType": "uint256[]",
                    "name": "ids",
                    "type": "uint256[]"
                }
            ],
            "name": "balanceOfBatch",
            "outputs": [
                {
                    "internalType": "uint256[]",
                    "name": "",
                    "type": "uint256[]"
                }
            ],
            "stateMutability": "view",
            "type": "function"
        },
        {
            "inputs": [
                {
                    "internalType": "address",
                    "name": "account",
                    "type": "address"
                },
                {
                    "internalType": "uint256",
                    "name": "id",
                    "type": "uint256"
                },
                {
                    "internalType": "uint256",
                    "name": "value",
                    "type": "uint256"
                }
            ],
            "name": "burn",
            "outputs": [],
            "stateMutability": "nonpayable",
            "type": "function"
        },
        {
            "inputs": [
                {
                    "internalType": "address",
                    "name": "account",
                    "type": "address"
                },
                {
                    "internalType": "uint256[]",
                    "name": "ids",
                    "type": "uint256[]"
                },
                {
                    "internalType": "uint256[]",
                    "name": "values",
                    "type": "uint256[]"
                }
            ],
            "name": "burnBatch",
            "outputs": [],
            "stateMutability": "nonpayable",
            "type": "function"
        },
        {
            "inputs": [
                {
                    "internalType": "address",
                    "name": "account",
                    "type": "address"
                }
            ],
            "name": "getAllTokens",
            "outputs": [
                {
                    "internalType": "uint256[]",
                    "name": "",
                    "type": "uint256[]"
                }
            ],
            "stateMutability": "view",
            "type": "function"
        },
        {
            "inputs": [
                {
                    "internalType": "string",
                    "name": "assetBundleID",
                    "type": "string"
                }
            ],
            "name": "getContractTokenBalanceByAssetBundleId",
            "outputs": [
                {
                    "internalType": "uint256",
                    "name": "balance",
                    "type": "uint256"
                }
            ],
            "stateMutability": "view",
            "type": "function"
        },
        {
            "inputs": [
                {
                    "internalType": "uint256",
                    "name": "index",
                    "type": "uint256"
                }
            ],
            "name": "getContractTokenBalanceByIndex",
            "outputs": [
                {
                    "internalType": "uint256",
                    "name": "balance",
                    "type": "uint256"
                }
            ],
            "stateMutability": "view",
            "type": "function"
        },
        {
            "inputs": [
                {
                    "internalType": "bytes32",
                    "name": "role",
                    "type": "bytes32"
                }
            ],
            "name": "getRoleAdmin",
            "outputs": [
                {
                    "internalType": "bytes32",
                    "name": "",
                    "type": "bytes32"
                }
            ],
            "stateMutability": "view",
            "type": "function"
        },
        {
            "inputs": [
                {
                    "internalType": "bytes32",
                    "name": "role",
                    "type": "bytes32"
                },
                {
                    "internalType": "uint256",
                    "name": "index",
                    "type": "uint256"
                }
            ],
            "name": "getRoleMember",
            "outputs": [
                {
                    "internalType": "address",
                    "name": "",
                    "type": "address"
                }
            ],
            "stateMutability": "view",
            "type": "function"
        },
        {
            "inputs": [
                {
                    "internalType": "bytes32",
                    "name": "role",
                    "type": "bytes32"
                }
            ],
            "name": "getRoleMemberCount",
            "outputs": [
                {
                    "internalType": "uint256",
                    "name": "",
                    "type": "uint256"
                }
            ],
            "stateMutability": "view",
            "type": "function"
        },
        {
            "inputs": [
                {
                    "internalType": "address",
                    "name": "account",
                    "type": "address"
                },
                {
                    "internalType": "string",
                    "name": "assetBundleID",
                    "type": "string"
                }
            ],
            "name": "getUserTokenBalanceByAssetBundleId",
            "outputs": [
                {
                    "internalType": "uint256",
                    "name": "balance",
                    "type": "uint256"
                }
            ],
            "stateMutability": "view",
            "type": "function"
        },
        {
            "inputs": [
                {
                    "internalType": "address",
                    "name": "account",
                    "type": "address"
                },
                {
                    "internalType": "uint256",
                    "name": "index",
                    "type": "uint256"
                }
            ],
            "name": "getUserTokenBalanceByIndex",
            "outputs": [
                {
                    "internalType": "uint256",
                    "name": "balance",
                    "type": "uint256"
                }
            ],
            "stateMutability": "view",
            "type": "function"
        },
        {
            "inputs": [
                {
                    "internalType": "bytes32",
                    "name": "role",
                    "type": "bytes32"
                },
                {
                    "internalType": "address",
                    "name": "account",
                    "type": "address"
                }
            ],
            "name": "grantRole",
            "outputs": [],
            "stateMutability": "nonpayable",
            "type": "function"
        },
        {
            "inputs": [
                {
                    "internalType": "bytes32",
                    "name": "role",
                    "type": "bytes32"
                },
                {
                    "internalType": "address",
                    "name": "account",
                    "type": "address"
                }
            ],
            "name": "hasRole",
            "outputs": [
                {
                    "internalType": "bool",
                    "name": "",
                    "type": "bool"
                }
            ],
            "stateMutability": "view",
            "type": "function"
        },
        {
            "inputs": [
                {
                    "internalType": "string",
                    "name": "",
                    "type": "string"
                }
            ],
            "name": "idmap",
            "outputs": [
                {
                    "internalType": "uint256",
                    "name": "",
                    "type": "uint256"
                }
            ],
            "stateMutability": "view",
            "type": "function"
        },
        {
            "inputs": [
                {
                    "internalType": "address",
                    "name": "account",
                    "type": "address"
                },
                {
                    "internalType": "address",
                    "name": "operator",
                    "type": "address"
                }
            ],
            "name": "isApprovedForAll",
            "outputs": [
                {
                    "internalType": "bool",
                    "name": "",
                    "type": "bool"
                }
            ],
            "stateMutability": "view",
            "type": "function"
        },
        {
            "inputs": [
                {
                    "internalType": "uint256",
                    "name": "",
                    "type": "uint256"
                }
            ],
            "name": "lookupmap",
            "outputs": [
                {
                    "internalType": "string",
                    "name": "",
                    "type": "string"
                }
            ],
            "stateMutability": "view",
            "type": "function"
        },
        {
            "inputs": [
                {
                    "internalType": "address",
                    "name": "to",
                    "type": "address"
                },
                {
                    "internalType": "uint256",
                    "name": "id",
                    "type": "uint256"
                },
                {
                    "internalType": "uint256",
                    "name": "amount",
                    "type": "uint256"
                },
                {
                    "internalType": "bytes",
                    "name": "data",
                    "type": "bytes"
                }
            ],
            "name": "mint",
            "outputs": [],
            "stateMutability": "nonpayable",
            "type": "function"
        },
        {
            "inputs": [
                {
                    "internalType": "address",
                    "name": "to",
                    "type": "address"
                },
                {
                    "internalType": "uint256[]",
                    "name": "ids",
                    "type": "uint256[]"
                },
                {
                    "internalType": "uint256[]",
                    "name": "amounts",
                    "type": "uint256[]"
                },
                {
                    "internalType": "bytes",
                    "name": "data",
                    "type": "bytes"
                }
            ],
            "name": "mintBatch",
            "outputs": [],
            "stateMutability": "nonpayable",
            "type": "function"
        },
        {
            "inputs": [
                {
                    "internalType": "address",
                    "name": "",
                    "type": "address"
                },
                {
                    "internalType": "address",
                    "name": "",
                    "type": "address"
                },
                {
                    "internalType": "uint256[]",
                    "name": "",
                    "type": "uint256[]"
                },
                {
                    "internalType": "uint256[]",
                    "name": "",
                    "type": "uint256[]"
                },
                {
                    "internalType": "bytes",
                    "name": "",
                    "type": "bytes"
                }
            ],
            "name": "onERC1155BatchReceived",
            "outputs": [
                {
                    "internalType": "bytes4",
                    "name": "",
                    "type": "bytes4"
                }
            ],
            "stateMutability": "nonpayable",
            "type": "function"
        },
        {
            "inputs": [
                {
                    "internalType": "address",
                    "name": "",
                    "type": "address"
                },
                {
                    "internalType": "address",
                    "name": "",
                    "type": "address"
                },
                {
                    "internalType": "uint256",
                    "name": "",
                    "type": "uint256"
                },
                {
                    "internalType": "uint256",
                    "name": "",
                    "type": "uint256"
                },
                {
                    "internalType": "bytes",
                    "name": "",
                    "type": "bytes"
                }
            ],
            "name": "onERC1155Received",
            "outputs": [
                {
                    "internalType": "bytes4",
                    "name": "",
                    "type": "bytes4"
                }
            ],
            "stateMutability": "nonpayable",
            "type": "function"
        },
        {
            "inputs": [],
            "name": "owner",
            "outputs": [
                {
                    "internalType": "address",
                    "name": "",
                    "type": "address"
                }
            ],
            "stateMutability": "view",
            "type": "function"
        },
        {
            "inputs": [],
            "name": "pause",
            "outputs": [],
            "stateMutability": "nonpayable",
            "type": "function"
        },
        {
            "inputs": [],
            "name": "paused",
            "outputs": [
                {
                    "internalType": "bool",
                    "name": "",
                    "type": "bool"
                }
            ],
            "stateMutability": "view",
            "type": "function"
        },
        {
            "inputs": [
                {
                    "internalType": "uint256",
                    "name": "index",
                    "type": "uint256"
                }
            ],
            "name": "purchaseAssetBundleID",
            "outputs": [],
            "stateMutability": "payable",
            "type": "function"
        },
        {
            "inputs": [],
            "name": "renounceOwnership",
            "outputs": [],
            "stateMutability": "nonpayable",
            "type": "function"
        },
        {
            "inputs": [
                {
                    "internalType": "bytes32",
                    "name": "role",
                    "type": "bytes32"
                },
                {
                    "internalType": "address",
                    "name": "account",
                    "type": "address"
                }
            ],
            "name": "renounceRole",
            "outputs": [],
            "stateMutability": "nonpayable",
            "type": "function"
        },
        {
            "inputs": [
                {
                    "internalType": "bytes32",
                    "name": "role",
                    "type": "bytes32"
                },
                {
                    "internalType": "address",
                    "name": "account",
                    "type": "address"
                }
            ],
            "name": "revokeRole",
            "outputs": [],
            "stateMutability": "nonpayable",
            "type": "function"
        },
        {
            "inputs": [
                {
                    "internalType": "address",
                    "name": "from",
                    "type": "address"
                },
                {
                    "internalType": "address",
                    "name": "to",
                    "type": "address"
                },
                {
                    "internalType": "uint256[]",
                    "name": "ids",
                    "type": "uint256[]"
                },
                {
                    "internalType": "uint256[]",
                    "name": "amounts",
                    "type": "uint256[]"
                },
                {
                    "internalType": "bytes",
                    "name": "data",
                    "type": "bytes"
                }
            ],
            "name": "safeBatchTransferFrom",
            "outputs": [],
            "stateMutability": "nonpayable",
            "type": "function"
        },
        {
            "inputs": [
                {
                    "internalType": "address",
                    "name": "from",
                    "type": "address"
                },
                {
                    "internalType": "address",
                    "name": "to",
                    "type": "address"
                },
                {
                    "internalType": "uint256",
                    "name": "id",
                    "type": "uint256"
                },
                {
                    "internalType": "uint256",
                    "name": "amount",
                    "type": "uint256"
                },
                {
                    "internalType": "bytes",
                    "name": "data",
                    "type": "bytes"
                }
            ],
            "name": "safeTransferFrom",
            "outputs": [],
            "stateMutability": "nonpayable",
            "type": "function"
        },
        {
            "inputs": [
                {
                    "internalType": "address",
                    "name": "operator",
                    "type": "address"
                },
                {
                    "internalType": "bool",
                    "name": "approved",
                    "type": "bool"
                }
            ],
            "name": "setApprovalForAll",
            "outputs": [],
            "stateMutability": "nonpayable",
            "type": "function"
        },
        {
            "inputs": [
                {
                    "internalType": "bytes4",
                    "name": "interfaceId",
                    "type": "bytes4"
                }
            ],
            "name": "supportsInterface",
            "outputs": [
                {
                    "internalType": "bool",
                    "name": "",
                    "type": "bool"
                }
            ],
            "stateMutability": "view",
            "type": "function"
        },
        {
            "inputs": [
                {
                    "internalType": "address",
                    "name": "newOwner",
                    "type": "address"
                }
            ],
            "name": "transferOwnership",
            "outputs": [],
            "stateMutability": "nonpayable",
            "type": "function"
        },
        {
            "inputs": [],
            "name": "unpause",
            "outputs": [],
            "stateMutability": "nonpayable",
            "type": "function"
        },
        {
            "inputs": [
                {
                    "internalType": "uint256",
                    "name": "index",
                    "type": "uint256"
                }
            ],
            "name": "uri",
            "outputs": [
                {
                    "internalType": "string",
                    "name": "",
                    "type": "string"
                }
            ],
            "stateMutability": "view",
            "type": "function"
        },
        {
            "inputs": [],
            "name": "withdraw",
            "outputs": [],
            "stateMutability": "nonpayable",
            "type": "function"
        }
    ],
    "bytecode": "6080604052662386f26fc1000060065560006007553480156200002157600080fd5b50604051806060016040528060228152602001620039cb60229139806200004881620000dc565b506005805460ff1916905562000060600033620000ee565b6200008c7f9f2df0fed2c77648de5860a4cc508cd0818c85b8b8a1ab4ceeef8d981c8956a633620000ee565b620000b87f65d7a28e3265b37a6474929f336521b332c1681b933f6cb9f3376673440d862a33620000ee565b50620000c433620000fa565b600880546001600160a01b0319163317905562000419565b6004620000ea82826200034d565b5050565b620000ea828262000154565b600580546001600160a01b03838116610100818102610100600160a81b031985161790945560405193909204169182907f8be0079c531659141344cd1fd0a4f28419497f9722a3daafe3b4186f6b6457e090600090a35050565b6200016b82826200019760201b620012841760201c565b6000828152600160209081526040909120620001929183906200130862000237821b17901c565b505050565b6000828152602081815260408083206001600160a01b038516845290915290205460ff16620000ea576000828152602081815260408083206001600160a01b03851684529091529020805460ff19166001179055620001f33390565b6001600160a01b0316816001600160a01b0316837f2f8788117e7eff1d82e926ec794901d17c78024a50270940304540a733656f0d60405160405180910390a45050565b60006200024e836001600160a01b03841662000257565b90505b92915050565b6000818152600183016020526040812054620002a05750815460018181018455600084815260208082209093018490558454848252828601909352604090209190915562000251565b50600062000251565b634e487b7160e01b600052604160045260246000fd5b600181811c90821680620002d457607f821691505b602082108103620002f557634e487b7160e01b600052602260045260246000fd5b50919050565b601f8211156200019257600081815260208120601f850160051c81016020861015620003245750805b601f850160051c820191505b81811015620003455782815560010162000330565b505050505050565b81516001600160401b03811115620003695762000369620002a9565b62000381816200037a8454620002bf565b84620002fb565b602080601f831160018114620003b95760008415620003a05750858301515b600019600386901b1c1916600185901b17855562000345565b600085815260208120601f198616915b82811015620003ea57888601518255948401946001909101908401620003c9565b5085821015620004095787850151600019600388901b60f8161c191681555b5050505050600190811b01905550565b6135a280620004296000396000f3fe60806040526004361061024f5760003560e01c8063731133e911610139578063c8ec20ed116100b6578063e63ab1e91161007a578063e63ab1e91461072b578063e985e9c51461075f578063f23a6e61146107a8578063f242432a146107d4578063f2fde38b146107f4578063f5298aca1461081457600080fd5b8063c8ec20ed1461068b578063ca15c873146106a1578063cac2add6146106c1578063d5391393146106d7578063d547741f1461070b57600080fd5b806391d14854116100fd57806391d14854146105d1578063a217fddf146105f1578063a22cb46514610606578063b28f6df614610626578063bc197c811461064657600080fd5b8063731133e9146105255780638329b97c146105455780638456cb59146105655780638da5cb5b1461057a5780639010d07c146105b157600080fd5b806336568abe116101d25780634e1273f4116101965780634e1273f4146104605780635781c6a7146104805780635c975abb146104b85780635ed37548146104d05780636b20c454146104f0578063715018a61461051057600080fd5b806336568abe146103d65780633b8b800c146103f65780633ccfd60b146104165780633f4ba83a1461042b5780634a9efc521461044057600080fd5b8063178b6de611610219578063178b6de6146103195780631f7fdffa14610346578063248a9ca3146103665780632eb2c2d6146103965780632f2ff15d146103b657600080fd5b806233041414610254578062fdd58e1461026957806301ffc9a71461029c57806303d6ae7e146102cc5780630e89341c146102ec575b600080fd5b610267610262366004612614565b610834565b005b34801561027557600080fd5b50610289610284366004612649565b6108b6565b6040519081526020015b60405180910390f35b3480156102a857600080fd5b506102bc6102b7366004612689565b61094c565b6040519015158152602001610293565b3480156102d857600080fd5b506102896102e7366004612614565b610957565b3480156102f857600080fd5b5061030c610307366004612614565b610963565b60405161029391906126f6565b34801561032557600080fd5b50610339610334366004612709565b6109a4565b604051610293919061275f565b34801561035257600080fd5b506102676103613660046128bb565b610a93565b34801561037257600080fd5b50610289610381366004612614565b60009081526020819052604090206001015490565b3480156103a257600080fd5b506102676103b1366004612953565b610aeb565b3480156103c257600080fd5b506102676103d13660046129fc565b610b37565b3480156103e257600080fd5b506102676103f13660046129fc565b610b61565b34801561040257600080fd5b50610267610411366004612a28565b610bdf565b34801561042257600080fd5b50610267610ce1565b34801561043757600080fd5b50610267610d23565b34801561044c57600080fd5b5061028961045b366004612ab4565b610dc9565b34801561046c57600080fd5b5061033961047b366004612b06565b610dfd565b34801561048c57600080fd5b5061028961049b366004612bd0565b805160208183018101805160098252928201919093012091525481565b3480156104c457600080fd5b5060055460ff166102bc565b3480156104dc57600080fd5b506102896104eb366004612c04565b610f26565b3480156104fc57600080fd5b5061026761050b366004612c45565b610f45565b34801561051c57600080fd5b50610267610f88565b34801561053157600080fd5b50610267610540366004612cb8565b610f9a565b34801561055157600080fd5b50610289610560366004612649565b610fec565b34801561057157600080fd5b50610267610ff8565b34801561058657600080fd5b5060055461010090046001600160a01b03165b6040516001600160a01b039091168152602001610293565b3480156105bd57600080fd5b506105996105cc366004612d0c565b61109c565b3480156105dd57600080fd5b506102bc6105ec3660046129fc565b6110b4565b3480156105fd57600080fd5b50610289600081565b34801561061257600080fd5b50610267610621366004612d2e565b6110dd565b34801561063257600080fd5b5061030c610641366004612614565b6110e8565b34801561065257600080fd5b50610672610661366004612953565b63bc197c8160e01b95945050505050565b6040516001600160e01b03199091168152602001610293565b34801561069757600080fd5b5061028960075481565b3480156106ad57600080fd5b506102896106bc366004612614565b611182565b3480156106cd57600080fd5b5061028960065481565b3480156106e357600080fd5b506102897f9f2df0fed2c77648de5860a4cc508cd0818c85b8b8a1ab4ceeef8d981c8956a681565b34801561071757600080fd5b506102676107263660046129fc565b611199565b34801561073757600080fd5b506102897f65d7a28e3265b37a6474929f336521b332c1681b933f6cb9f3376673440d862a81565b34801561076b57600080fd5b506102bc61077a366004612d6a565b6001600160a01b03918216600090815260036020908152604080832093909416825291909152205460ff1690565b3480156107b457600080fd5b506106726107c3366004612d94565b63f23a6e6160e01b95945050505050565b3480156107e057600080fd5b506102676107ef366004612d94565b6111be565b34801561080057600080fd5b5061026761080f366004612709565b6111cb565b34801561082057600080fd5b5061026761082f366004612df8565b611241565b60065434146108965760405162461bcd60e51b8152602060048201526024808201527f496e73756666696369656e742066756e647320666f7220736b696e20707572636044820152636861736560e01b60648201526084015b60405180910390fd5b6108b33033836001604051806020016040528060008152506111be565b50565b60006001600160a01b0383166109215760405162461bcd60e51b815260206004820152602a60248201527f455243313135353a2061646472657373207a65726f206973206e6f742061207660448201526930b634b21037bbb732b960b11b606482015260840161088d565b5060008181526002602090815260408083206001600160a01b03861684529091529020545b92915050565b60006109468261131d565b600061094630836108b6565b606061096e8261135d565b6000838152600a6020908152604091829020915161098e93929101612e65565b6040516020818303038152906040529050919050565b60606000805b60075481116109e55760006109bf85836108b6565b11156109d357816109cf81612f08565b9250505b806109dd81612f08565b9150506109aa565b506000816001600160401b03811115610a0057610a00612772565b604051908082528060200260200182016040528015610a29578160200160208202803683370190505b5090506000805b6007548111610a89576000610a4587836108b6565b1115610a775780838381518110610a5e57610a5e612f21565b602090810291909101015281610a7381612f08565b9250505b80610a8181612f08565b915050610a30565b5090949350505050565b610abd7f9f2df0fed2c77648de5860a4cc508cd0818c85b8b8a1ab4ceeef8d981c8956a6336110b4565b610ad95760405162461bcd60e51b815260040161088d90612f37565b610ae5848484846113f1565b50505050565b6001600160a01b038516331480610b075750610b07853361077a565b610b235760405162461bcd60e51b815260040161088d90612f94565b610b30858585858561154c565b5050505050565b600082815260208190526040902060010154610b52816116f9565b610b5c8383611703565b505050565b6001600160a01b0381163314610bd15760405162461bcd60e51b815260206004820152602f60248201527f416363657373436f6e74726f6c3a2063616e206f6e6c792072656e6f756e636560448201526e103937b632b9903337b91039b2b63360891b606482015260840161088d565b610bdb8282611725565b5050565b610be7611747565b600982604051610bf79190612fe2565b908152602001604051809103902054600014610c725760405162461bcd60e51b815260206004820152603460248201527f417373657442756e646c65546f6b656e733a205468697320417373657442756e604482015273646c65494420616c72656164792065786973747360601b606482015260840161088d565b600754610c80906001612ffe565b6007819055604051600990610c96908590612fe2565b9081526040805160209281900383019020929092556007546000908152600a90915220610cc38382613057565b50610bdb3060075483604051806020016040528060008152506117a7565b610ce9611747565b60085460405147916001600160a01b03169082156108fc029083906000818181858888f19350505050158015610bdb573d6000803e3d6000fd5b610d4d7f65d7a28e3265b37a6474929f336521b332c1681b933f6cb9f3376673440d862a336110b4565b610dbf5760405162461bcd60e51b815260206004820152603b60248201527f455243313135355072657365744d696e7465725061757365723a206d7573742060448201527f686176652070617573657220726f6c6520746f20756e70617573650000000000606482015260840161088d565b610dc7611892565b565b6000610df58460098585604051610de1929190613116565b9081526020016040518091039020546108b6565b949350505050565b60608151835114610e625760405162461bcd60e51b815260206004820152602960248201527f455243313135353a206163636f756e747320616e6420696473206c656e677468604482015268040dad2e6dac2e8c6d60bb1b606482015260840161088d565b600083516001600160401b03811115610e7d57610e7d612772565b604051908082528060200260200182016040528015610ea6578160200160208202803683370190505b50905060005b8451811015610f1e57610ef1858281518110610eca57610eca612f21565b6020026020010151858381518110610ee457610ee4612f21565b60200260200101516108b6565b828281518110610f0357610f03612f21565b6020908102919091010152610f1781612f08565b9050610eac565b509392505050565b6000610f3e3060098585604051610de1929190613116565b9392505050565b6001600160a01b038316331480610f615750610f61833361077a565b610f7d5760405162461bcd60e51b815260040161088d90612f94565b610b5c8383836118e4565b610f90611747565b610dc76000611a83565b610fc47f9f2df0fed2c77648de5860a4cc508cd0818c85b8b8a1ab4ceeef8d981c8956a6336110b4565b610fe05760405162461bcd60e51b815260040161088d90612f37565b610ae5848484846117a7565b6000610f3e83836108b6565b6110227f65d7a28e3265b37a6474929f336521b332c1681b933f6cb9f3376673440d862a336110b4565b6110945760405162461bcd60e51b815260206004820152603960248201527f455243313135355072657365744d696e7465725061757365723a206d7573742060448201527f686176652070617573657220726f6c6520746f20706175736500000000000000606482015260840161088d565b610dc7611add565b6000828152600160205260408120610f3e9083611b1a565b6000918252602082815260408084206001600160a01b0393909316845291905290205460ff1690565b610bdb338383611b26565b600a602052600090815260409020805461110190612e2b565b80601f016020809104026020016040519081016040528092919081815260200182805461112d90612e2b565b801561117a5780601f1061114f5761010080835404028352916020019161117a565b820191906000526020600020905b81548152906001019060200180831161115d57829003601f168201915b505050505081565b600081815260016020526040812061094690611c06565b6000828152602081905260409020600101546111b4816116f9565b610b5c8383611725565b610b308585858585611c10565b6111d3611747565b6001600160a01b0381166112385760405162461bcd60e51b815260206004820152602660248201527f4f776e61626c653a206e6577206f776e657220697320746865207a65726f206160448201526564647265737360d01b606482015260840161088d565b6108b381611a83565b6001600160a01b03831633148061125d575061125d833361077a565b6112795760405162461bcd60e51b815260040161088d90612f94565b610b5c838383611d4c565b61128e82826110b4565b610bdb576000828152602081815260408083206001600160a01b03851684529091529020805460ff191660011790556112c43390565b6001600160a01b0316816001600160a01b0316837f2f8788117e7eff1d82e926ec794901d17c78024a50270940304540a733656f0d60405160405180910390a45050565b6000610f3e836001600160a01b038416611e68565b60006001600160e01b03198216636cdb3d1360e11b148061134e57506001600160e01b031982166303a24d0760e21b145b80610946575061094682611eb7565b60606004805461136c90612e2b565b80601f016020809104026020016040519081016040528092919081815260200182805461139890612e2b565b80156113e55780601f106113ba576101008083540402835291602001916113e5565b820191906000526020600020905b8154815290600101906020018083116113c857829003601f168201915b50505050509050919050565b6001600160a01b0384166114175760405162461bcd60e51b815260040161088d90613126565b81518351146114385760405162461bcd60e51b815260040161088d90613167565b3361144881600087878787611edc565b60005b84518110156114e45783818151811061146657611466612f21565b60200260200101516002600087848151811061148457611484612f21565b602002602001015181526020019081526020016000206000886001600160a01b03166001600160a01b0316815260200190815260200160002060008282546114cc9190612ffe565b909155508190506114dc81612f08565b91505061144b565b50846001600160a01b031660006001600160a01b0316826001600160a01b03167f4a39dc06d4c0dbc64b70af90fd698a233a518aa5d07e595d983b8c0526c8f7fb87876040516115359291906131af565b60405180910390a4610b3081600087878787611eea565b815183511461156d5760405162461bcd60e51b815260040161088d90613167565b6001600160a01b0384166115935760405162461bcd60e51b815260040161088d906131dd565b336115a2818787878787611edc565b60005b845181101561168b5760008582815181106115c2576115c2612f21565b6020026020010151905060008583815181106115e0576115e0612f21565b60209081029190910181015160008481526002835260408082206001600160a01b038e1683529093529190912054909150818110156116315760405162461bcd60e51b815260040161088d90613222565b60008381526002602090815260408083206001600160a01b038e8116855292528083208585039055908b16825281208054849290611670908490612ffe565b925050819055505050508061168490612f08565b90506115a5565b50846001600160a01b0316866001600160a01b0316826001600160a01b03167f4a39dc06d4c0dbc64b70af90fd698a233a518aa5d07e595d983b8c0526c8f7fb87876040516116db9291906131af565b60405180910390a46116f1818787878787611eea565b505050505050565b6108b38133612045565b61170d8282611284565b6000828152600160205260409020610b5c9082611308565b61172f828261209e565b6000828152600160205260409020610b5c9082612103565b6005546001600160a01b03610100909104163314610dc75760405162461bcd60e51b815260206004820181905260248201527f4f776e61626c653a2063616c6c6572206973206e6f7420746865206f776e6572604482015260640161088d565b6001600160a01b0384166117cd5760405162461bcd60e51b815260040161088d90613126565b3360006117d985612118565b905060006117e685612118565b90506117f783600089858589611edc565b60008681526002602090815260408083206001600160a01b038b16845290915281208054879290611829908490612ffe565b909155505060408051878152602081018790526001600160a01b03808a1692600092918716917fc3d58168c5ae7397731d063d5bbf3d657854427343f4c083240f7aacaa2d0f62910160405180910390a461188983600089898989612163565b50505050505050565b61189a61221e565b6005805460ff191690557f5db9ee0a495bf2e6ff9c91a7834c1ba4fdd244a5e8aa4e537bd38aeae4b073aa335b6040516001600160a01b03909116815260200160405180910390a1565b6001600160a01b03831661190a5760405162461bcd60e51b815260040161088d9061326c565b805182511461192b5760405162461bcd60e51b815260040161088d90613167565b600033905061194e81856000868660405180602001604052806000815250611edc565b60005b8351811015611a1657600084828151811061196e5761196e612f21565b60200260200101519050600084838151811061198c5761198c612f21565b60209081029190910181015160008481526002835260408082206001600160a01b038c1683529093529190912054909150818110156119dd5760405162461bcd60e51b815260040161088d906132af565b60009283526002602090815260408085206001600160a01b038b1686529091529092209103905580611a0e81612f08565b915050611951565b5060006001600160a01b0316846001600160a01b0316826001600160a01b03167f4a39dc06d4c0dbc64b70af90fd698a233a518aa5d07e595d983b8c0526c8f7fb8686604051611a679291906131af565b60405180910390a4604080516020810190915260009052610ae5565b600580546001600160a01b03838116610100818102610100600160a81b031985161790945560405193909204169182907f8be0079c531659141344cd1fd0a4f28419497f9722a3daafe3b4186f6b6457e090600090a35050565b611ae5612267565b6005805460ff191660011790557f62e78cea01bee320cd4e420270b5ea74000d11b0c9f74754ebdbfc544b05a2586118c73390565b6000610f3e83836122ad565b816001600160a01b0316836001600160a01b031603611b995760405162461bcd60e51b815260206004820152602960248201527f455243313135353a2073657474696e6720617070726f76616c20737461747573604482015268103337b91039b2b63360b91b606482015260840161088d565b6001600160a01b03838116600081815260036020908152604080832094871680845294825291829020805460ff191686151590811790915591519182527f17307eab39ab6107e8899845ad3d59bd9653f200f220920489ca2b5937696c31910160405180910390a3505050565b6000610946825490565b6001600160a01b038416611c365760405162461bcd60e51b815260040161088d906131dd565b336000611c4285612118565b90506000611c4f85612118565b9050611c5f838989858589611edc565b60008681526002602090815260408083206001600160a01b038c16845290915290205485811015611ca25760405162461bcd60e51b815260040161088d90613222565b60008781526002602090815260408083206001600160a01b038d8116855292528083208985039055908a16825281208054889290611ce1908490612ffe565b909155505060408051888152602081018890526001600160a01b03808b16928c821692918816917fc3d58168c5ae7397731d063d5bbf3d657854427343f4c083240f7aacaa2d0f62910160405180910390a4611d41848a8a8a8a8a612163565b505050505050505050565b6001600160a01b038316611d725760405162461bcd60e51b815260040161088d9061326c565b336000611d7e84612118565b90506000611d8b84612118565b9050611dab83876000858560405180602001604052806000815250611edc565b60008581526002602090815260408083206001600160a01b038a16845290915290205484811015611dee5760405162461bcd60e51b815260040161088d906132af565b60008681526002602090815260408083206001600160a01b038b81168086529184528285208a8703905582518b81529384018a90529092908816917fc3d58168c5ae7397731d063d5bbf3d657854427343f4c083240f7aacaa2d0f62910160405180910390a4604080516020810190915260009052611889565b6000818152600183016020526040812054611eaf57508154600181810184556000848152602080822090930184905584548482528286019093526040902091909155610946565b506000610946565b60006001600160e01b03198216635a05180f60e01b14806109465750610946826122d7565b6116f186868686868661230c565b6001600160a01b0384163b156116f15760405163bc197c8160e01b81526001600160a01b0385169063bc197c8190611f2e90899089908890889088906004016132f3565b6020604051808303816000875af1925050508015611f69575060408051601f3d908101601f19168201909252611f6691810190613351565b60015b61201557611f7561336e565b806308c379a003611fae5750611f8961338a565b80611f945750611fb0565b8060405162461bcd60e51b815260040161088d91906126f6565b505b60405162461bcd60e51b815260206004820152603460248201527f455243313135353a207472616e7366657220746f206e6f6e2d455243313135356044820152732932b1b2b4bb32b91034b6b83632b6b2b73a32b960611b606482015260840161088d565b6001600160e01b0319811663bc197c8160e01b146118895760405162461bcd60e51b815260040161088d90613413565b61204f82826110b4565b610bdb5761205c81612374565b612067836020612386565b60405160200161207892919061345b565b60408051601f198184030181529082905262461bcd60e51b825261088d916004016126f6565b6120a882826110b4565b15610bdb576000828152602081815260408083206001600160a01b0385168085529252808320805460ff1916905551339285917ff6391f5c32d9c69d2a47ea670b442974b53935d1edc7fd64eb21e047a839171b9190a45050565b6000610f3e836001600160a01b038416612521565b6040805160018082528183019092526060916000919060208083019080368337019050509050828160008151811061215257612152612f21565b602090810291909101015292915050565b6001600160a01b0384163b156116f15760405163f23a6e6160e01b81526001600160a01b0385169063f23a6e61906121a790899089908890889088906004016134d0565b6020604051808303816000875af19250505080156121e2575060408051601f3d908101601f191682019092526121df91810190613351565b60015b6121ee57611f7561336e565b6001600160e01b0319811663f23a6e6160e01b146118895760405162461bcd60e51b815260040161088d90613413565b60055460ff16610dc75760405162461bcd60e51b815260206004820152601460248201527314185d5cd8589b194e881b9bdd081c185d5cd95960621b604482015260640161088d565b60055460ff1615610dc75760405162461bcd60e51b815260206004820152601060248201526f14185d5cd8589b194e881c185d5cd95960821b604482015260640161088d565b60008260000182815481106122c4576122c4612f21565b9060005260206000200154905092915050565b60006001600160e01b03198216637965db0b60e01b148061094657506301ffc9a760e01b6001600160e01b0319831614610946565b60055460ff16156116f15760405162461bcd60e51b815260206004820152602c60248201527f455243313135355061757361626c653a20746f6b656e207472616e736665722060448201526b1dda1a5b19481c185d5cd95960a21b606482015260840161088d565b60606109466001600160a01b03831660145b60606000612395836002613515565b6123a0906002612ffe565b6001600160401b038111156123b7576123b7612772565b6040519080825280601f01601f1916602001820160405280156123e1576020820181803683370190505b509050600360fc1b816000815181106123fc576123fc612f21565b60200101906001600160f81b031916908160001a905350600f60fb1b8160018151811061242b5761242b612f21565b60200101906001600160f81b031916908160001a905350600061244f846002613515565b61245a906001612ffe565b90505b60018111156124d2576f181899199a1a9b1b9c1cb0b131b232b360811b85600f166010811061248e5761248e612f21565b1a60f81b8282815181106124a4576124a4612f21565b60200101906001600160f81b031916908160001a90535060049490941c936124cb8161352c565b905061245d565b508315610f3e5760405162461bcd60e51b815260206004820181905260248201527f537472696e67733a20686578206c656e67746820696e73756666696369656e74604482015260640161088d565b6000818152600183016020526040812054801561260a576000612545600183613543565b855490915060009061255990600190613543565b90508181146125be57600086600001828154811061257957612579612f21565b906000526020600020015490508087600001848154811061259c5761259c612f21565b6000918252602080832090910192909255918252600188019052604090208390555b85548690806125cf576125cf613556565b600190038181906000526020600020016000905590558560010160008681526020019081526020016000206000905560019350505050610946565b6000915050610946565b60006020828403121561262657600080fd5b5035919050565b80356001600160a01b038116811461264457600080fd5b919050565b6000806040838503121561265c57600080fd5b6126658361262d565b946020939093013593505050565b6001600160e01b0319811681146108b357600080fd5b60006020828403121561269b57600080fd5b8135610f3e81612673565b60005b838110156126c15781810151838201526020016126a9565b50506000910152565b600081518084526126e28160208601602086016126a6565b601f01601f19169290920160200192915050565b602081526000610f3e60208301846126ca565b60006020828403121561271b57600080fd5b610f3e8261262d565b600081518084526020808501945080840160005b8381101561275457815187529582019590820190600101612738565b509495945050505050565b602081526000610f3e6020830184612724565b634e487b7160e01b600052604160045260246000fd5b601f8201601f191681016001600160401b03811182821017156127ad576127ad612772565b6040525050565b60006001600160401b038211156127cd576127cd612772565b5060051b60200190565b600082601f8301126127e857600080fd5b813560206127f5826127b4565b6040516128028282612788565b83815260059390931b850182019282810191508684111561282257600080fd5b8286015b8481101561283d5780358352918301918301612826565b509695505050505050565b600082601f83011261285957600080fd5b81356001600160401b0381111561287257612872612772565b604051612889601f8301601f191660200182612788565b81815284602083860101111561289e57600080fd5b816020850160208301376000918101602001919091529392505050565b600080600080608085870312156128d157600080fd5b6128da8561262d565b935060208501356001600160401b03808211156128f657600080fd5b612902888389016127d7565b9450604087013591508082111561291857600080fd5b612924888389016127d7565b9350606087013591508082111561293a57600080fd5b5061294787828801612848565b91505092959194509250565b600080600080600060a0868803121561296b57600080fd5b6129748661262d565b94506129826020870161262d565b935060408601356001600160401b038082111561299e57600080fd5b6129aa89838a016127d7565b945060608801359150808211156129c057600080fd5b6129cc89838a016127d7565b935060808801359150808211156129e257600080fd5b506129ef88828901612848565b9150509295509295909350565b60008060408385031215612a0f57600080fd5b82359150612a1f6020840161262d565b90509250929050565b60008060408385031215612a3b57600080fd5b82356001600160401b03811115612a5157600080fd5b612a5d85828601612848565b95602094909401359450505050565b60008083601f840112612a7e57600080fd5b5081356001600160401b03811115612a9557600080fd5b602083019150836020828501011115612aad57600080fd5b9250929050565b600080600060408486031215612ac957600080fd5b612ad28461262d565b925060208401356001600160401b03811115612aed57600080fd5b612af986828701612a6c565b9497909650939450505050565b60008060408385031215612b1957600080fd5b82356001600160401b0380821115612b3057600080fd5b818501915085601f830112612b4457600080fd5b81356020612b51826127b4565b604051612b5e8282612788565b83815260059390931b8501820192828101915089841115612b7e57600080fd5b948201945b83861015612ba357612b948661262d565b82529482019490820190612b83565b96505086013592505080821115612bb957600080fd5b50612bc6858286016127d7565b9150509250929050565b600060208284031215612be257600080fd5b81356001600160401b03811115612bf857600080fd5b610df584828501612848565b60008060208385031215612c1757600080fd5b82356001600160401b03811115612c2d57600080fd5b612c3985828601612a6c565b90969095509350505050565b600080600060608486031215612c5a57600080fd5b612c638461262d565b925060208401356001600160401b0380821115612c7f57600080fd5b612c8b878388016127d7565b93506040860135915080821115612ca157600080fd5b50612cae868287016127d7565b9150509250925092565b60008060008060808587031215612cce57600080fd5b612cd78561262d565b9350602085013592506040850135915060608501356001600160401b03811115612d0057600080fd5b61294787828801612848565b60008060408385031215612d1f57600080fd5b50508035926020909101359150565b60008060408385031215612d4157600080fd5b612d4a8361262d565b915060208301358015158114612d5f57600080fd5b809150509250929050565b60008060408385031215612d7d57600080fd5b612d868361262d565b9150612a1f6020840161262d565b600080600080600060a08688031215612dac57600080fd5b612db58661262d565b9450612dc36020870161262d565b9350604086013592506060860135915060808601356001600160401b03811115612dec57600080fd5b6129ef88828901612848565b600080600060608486031215612e0d57600080fd5b612e168461262d565b95602085013595506040909401359392505050565b600181811c90821680612e3f57607f821691505b602082108103612e5f57634e487b7160e01b600052602260045260246000fd5b50919050565b600083516020612e7882858389016126a6565b818401915060008554612e8a81612e2b565b60018281168015612ea25760018114612eb757612ee3565b60ff1984168752821515830287019450612ee3565b896000528560002060005b84811015612edb57815489820152908301908701612ec2565b505082870194505b50929998505050505050505050565b634e487b7160e01b600052601160045260246000fd5b600060018201612f1a57612f1a612ef2565b5060010190565b634e487b7160e01b600052603260045260246000fd5b60208082526038908201527f455243313135355072657365744d696e7465725061757365723a206d7573742060408201527f68617665206d696e74657220726f6c6520746f206d696e740000000000000000606082015260800190565b6020808252602e908201527f455243313135353a2063616c6c6572206973206e6f7420746f6b656e206f776e60408201526d195c881bdc88185c1c1c9bdd995960921b606082015260800190565b60008251612ff48184602087016126a6565b9190910192915050565b8082018082111561094657610946612ef2565b601f821115610b5c57600081815260208120601f850160051c810160208610156130385750805b601f850160051c820191505b818110156116f157828155600101613044565b81516001600160401b0381111561307057613070612772565b6130848161307e8454612e2b565b84613011565b602080601f8311600181146130b957600084156130a15750858301515b600019600386901b1c1916600185901b1785556116f1565b600085815260208120601f198616915b828110156130e8578886015182559484019460019091019084016130c9565b50858210156131065787850151600019600388901b60f8161c191681555b5050505050600190811b01905550565b8183823760009101908152919050565b60208082526021908201527f455243313135353a206d696e7420746f20746865207a65726f206164647265736040820152607360f81b606082015260800190565b60208082526028908201527f455243313135353a2069647320616e6420616d6f756e7473206c656e677468206040820152670dad2e6dac2e8c6d60c31b606082015260800190565b6040815260006131c26040830185612724565b82810360208401526131d48185612724565b95945050505050565b60208082526025908201527f455243313135353a207472616e7366657220746f20746865207a65726f206164604082015264647265737360d81b606082015260800190565b6020808252602a908201527f455243313135353a20696e73756666696369656e742062616c616e636520666f60408201526939103a3930b739b332b960b11b606082015260800190565b60208082526023908201527f455243313135353a206275726e2066726f6d20746865207a65726f206164647260408201526265737360e81b606082015260800190565b60208082526024908201527f455243313135353a206275726e20616d6f756e7420657863656564732062616c604082015263616e636560e01b606082015260800190565b6001600160a01b0386811682528516602082015260a06040820181905260009061331f90830186612724565b82810360608401526133318186612724565b9050828103608084015261334581856126ca565b98975050505050505050565b60006020828403121561336357600080fd5b8151610f3e81612673565b600060033d11156133875760046000803e5060005160e01c5b90565b600060443d10156133985790565b6040516003193d81016004833e81513d6001600160401b0381602484011181841117156133c757505050505090565b82850191508151818111156133df5750505050505090565b843d87010160208285010111156133f95750505050505090565b61340860208286010187612788565b509095945050505050565b60208082526028908201527f455243313135353a204552433131353552656365697665722072656a656374656040820152676420746f6b656e7360c01b606082015260800190565b7f416363657373436f6e74726f6c3a206163636f756e74200000000000000000008152600083516134938160178501602088016126a6565b7001034b99036b4b9b9b4b733903937b6329607d1b60179184019182015283516134c48160288401602088016126a6565b01602801949350505050565b6001600160a01b03868116825285166020820152604081018490526060810183905260a06080820181905260009061350a908301846126ca565b979650505050505050565b808202811582820484141761094657610946612ef2565b60008161353b5761353b612ef2565b506000190190565b8181038181111561094657610946612ef2565b634e487b7160e01b600052603160045260246000fdfea26469706673582212209afbfec4b26248ffcafa807a8efadc1ed773cc3b46918d4acb982125d369aa9d64736f6c6343000811003368747470733a2f2f676174657761792e70696e6174612e636c6f75642f697066732f",
    "sourcePath": "c:/Users/dzeni/Desktop/Skola/Year 3/1. sem/Blockchain Fundamentals/Nethereum tutorial/Remix Contracts/contracts/ERC1155AssetBundleTokens.sol",
    "compiler": {
        "name": "solc",
        "version": "0.8.17+commit.8df45f5f"
    },
    "functionHashes": {
        "DEFAULT_ADMIN_ROLE()": "a217fddf",
        "MINTER_ROLE()": "d5391393",
        "PAUSER_ROLE()": "e63ab1e9",
        "addAssetBundleID(string,uint256)": "3b8b800c",
        "assetBundleIDCounter()": "c8ec20ed",
        "assetBundlePrice()": "cac2add6",
        "balanceOf(address,uint256)": "00fdd58e",
        "balanceOfBatch(address[],uint256[])": "4e1273f4",
        "burn(address,uint256,uint256)": "f5298aca",
        "burnBatch(address,uint256[],uint256[])": "6b20c454",
        "getAllTokens(address)": "178b6de6",
        "getContractTokenBalanceByAssetBundleId(string)": "5ed37548",
        "getContractTokenBalanceByIndex(uint256)": "03d6ae7e",
        "getRoleAdmin(bytes32)": "248a9ca3",
        "getRoleMember(bytes32,uint256)": "9010d07c",
        "getRoleMemberCount(bytes32)": "ca15c873",
        "getUserTokenBalanceByAssetBundleId(address,string)": "4a9efc52",
        "getUserTokenBalanceByIndex(address,uint256)": "8329b97c",
        "grantRole(bytes32,address)": "2f2ff15d",
        "hasRole(bytes32,address)": "91d14854",
        "idmap(string)": "5781c6a7",
        "isApprovedForAll(address,address)": "e985e9c5",
        "lookupmap(uint256)": "b28f6df6",
        "mint(address,uint256,uint256,bytes)": "731133e9",
        "mintBatch(address,uint256[],uint256[],bytes)": "1f7fdffa",
        "onERC1155BatchReceived(address,address,uint256[],uint256[],bytes)": "bc197c81",
        "onERC1155Received(address,address,uint256,uint256,bytes)": "f23a6e61",
        "owner()": "8da5cb5b",
        "pause()": "8456cb59",
        "paused()": "5c975abb",
        "purchaseAssetBundleID(uint256)": "00330414",
        "renounceOwnership()": "715018a6",
        "renounceRole(bytes32,address)": "36568abe",
        "revokeRole(bytes32,address)": "d547741f",
        "safeBatchTransferFrom(address,address,uint256[],uint256[],bytes)": "2eb2c2d6",
        "safeTransferFrom(address,address,uint256,uint256,bytes)": "f242432a",
        "setApprovalForAll(address,bool)": "a22cb465",
        "supportsInterface(bytes4)": "01ffc9a7",
        "transferOwnership(address)": "f2fde38b",
        "unpause()": "3f4ba83a",
        "uri(uint256)": "0e89341c",
        "withdraw()": "3ccfd60b"
    },
    "gasEstimates": {
        "creation": {
            "codeDepositCost": "2746000",
            "executionCost": "infinite",
            "totalCost": "infinite"
        },
        "external": {
            "DEFAULT_ADMIN_ROLE()": "251",
            "MINTER_ROLE()": "295",
            "PAUSER_ROLE()": "228",
            "addAssetBundleID(string,uint256)": "infinite",
            "assetBundleIDCounter()": "2329",
            "assetBundlePrice()": "2373",
            "balanceOf(address,uint256)": "2748",
            "balanceOfBatch(address[],uint256[])": "infinite",
            "burn(address,uint256,uint256)": "infinite",
            "burnBatch(address,uint256[],uint256[])": "infinite",
            "getAllTokens(address)": "infinite",
            "getContractTokenBalanceByAssetBundleId(string)": "infinite",
            "getContractTokenBalanceByIndex(uint256)": "infinite",
            "getRoleAdmin(bytes32)": "2526",
            "getRoleMember(bytes32,uint256)": "infinite",
            "getRoleMemberCount(bytes32)": "infinite",
            "getUserTokenBalanceByAssetBundleId(address,string)": "infinite",
            "getUserTokenBalanceByIndex(address,uint256)": "2792",
            "grantRole(bytes32,address)": "infinite",
            "hasRole(bytes32,address)": "2707",
            "idmap(string)": "infinite",
            "isApprovedForAll(address,address)": "infinite",
            "lookupmap(uint256)": "infinite",
            "mint(address,uint256,uint256,bytes)": "infinite",
            "mintBatch(address,uint256[],uint256[],bytes)": "infinite",
            "onERC1155BatchReceived(address,address,uint256[],uint256[],bytes)": "infinite",
            "onERC1155Received(address,address,uint256,uint256,bytes)": "infinite",
            "owner()": "2443",
            "pause()": "infinite",
            "paused()": "2393",
            "purchaseAssetBundleID(uint256)": "infinite",
            "renounceOwnership()": "infinite",
            "renounceRole(bytes32,address)": "infinite",
            "revokeRole(bytes32,address)": "infinite",
            "safeBatchTransferFrom(address,address,uint256[],uint256[],bytes)": "infinite",
            "safeTransferFrom(address,address,uint256,uint256,bytes)": "infinite",
            "setApprovalForAll(address,bool)": "26772",
            "supportsInterface(bytes4)": "infinite",
            "transferOwnership(address)": "28501",
            "unpause()": "infinite",
            "uri(uint256)": "infinite",
            "withdraw()": "infinite"
        }
    }
}