{
    "contractName": "documentStore",
    "abi": [
        {
            "inputs": [
                {
                    "internalType": "bytes32",
                    "name": "key",
                    "type": "bytes32"
                },
                {
                    "internalType": "string",
                    "name": "name",
                    "type": "string"
                },
                {
                    "internalType": "string",
                    "name": "description",
                    "type": "string"
                }
            ],
            "name": "StoreDocument",
            "outputs": [
                {
                    "internalType": "bool",
                    "name": "success",
                    "type": "bool"
                }
            ],
            "stateMutability": "nonpayable",
            "type": "function"
        },
        {
            "inputs": [
                {
                    "internalType": "bytes32",
                    "name": "",
                    "type": "bytes32"
                },
                {
                    "internalType": "uint256",
                    "name": "",
                    "type": "uint256"
                }
            ],
            "name": "documents",
            "outputs": [
                {
                    "internalType": "string",
                    "name": "name",
                    "type": "string"
                },
                {
                    "internalType": "string",
                    "name": "description",
                    "type": "string"
                },
                {
                    "internalType": "address",
                    "name": "sender",
                    "type": "address"
                }
            ],
            "stateMutability": "view",
            "type": "function"
        }
    ],
    "bytecode": "608060405234801561001057600080fd5b506105e9806100206000396000f3fe608060405234801561001057600080fd5b50600436106100365760003560e01c80634a75c0ff1461003b57806379c17cc514610063575b600080fd5b61004e610049366004610334565b610085565b60405190151581526020015b60405180910390f35b6100766100713660046103ae565b61018b565b60405161005a93929190610416565b600080604051806060016040528087878080601f016020809104026020016040519081016040528093929190818152602001838380828437600092019190915250505090825250604080516020601f8801819004810282018101909252868152918101919087908790819084018382808284376000920182905250938552505033602093840152508981528082526040812080546001810182559082529190208251929350839260039092020190819061013f90826104f3565b506020820151600182019061015490826104f3565b5060409190910151600290910180546001600160a01b0319166001600160a01b039092169190911790555060019695505050505050565b600060205281600052604060002081815481106101a757600080fd5b9060005260206000209060030201600091509150508060000180546101cb9061046a565b80601f01602080910402602001604051908101604052809291908181526020018280546101f79061046a565b80156102445780601f1061021957610100808354040283529160200191610244565b820191906000526020600020905b81548152906001019060200180831161022757829003601f168201915b5050505050908060010180546102599061046a565b80601f01602080910402602001604051908101604052809291908181526020018280546102859061046a565b80156102d25780601f106102a7576101008083540402835291602001916102d2565b820191906000526020600020905b8154815290600101906020018083116102b557829003601f168201915b505050600290930154919250506001600160a01b031683565b60008083601f8401126102fd57600080fd5b50813567ffffffffffffffff81111561031557600080fd5b60208301915083602082850101111561032d57600080fd5b9250929050565b60008060008060006060868803121561034c57600080fd5b85359450602086013567ffffffffffffffff8082111561036b57600080fd5b61037789838a016102eb565b9096509450604088013591508082111561039057600080fd5b5061039d888289016102eb565b969995985093965092949392505050565b600080604083850312156103c157600080fd5b50508035926020909101359150565b6000815180845260005b818110156103f6576020818501810151868301820152016103da565b506000602082860101526020601f19601f83011685010191505092915050565b60608152600061042960608301866103d0565b828103602084015261043b81866103d0565b91505060018060a01b0383166040830152949350505050565b634e487b7160e01b600052604160045260246000fd5b600181811c9082168061047e57607f821691505b60208210810361049e57634e487b7160e01b600052602260045260246000fd5b50919050565b601f8211156104ee57600081815260208120601f850160051c810160208610156104cb5750805b601f850160051c820191505b818110156104ea578281556001016104d7565b5050505b505050565b815167ffffffffffffffff81111561050d5761050d610454565b6105218161051b845461046a565b846104a4565b602080601f831160018114610556576000841561053e5750858301515b600019600386901b1c1916600185901b1785556104ea565b600085815260208120601f198616915b8281101561058557888601518255948401946001909101908401610566565b50858210156105a35787850151600019600388901b60f8161c191681555b5050505050600190811b0190555056fea264697066735822122066a7cca84f46739b25c0c61e001ec3c5678c6abea649c4b991c08af47698bc8e64736f6c63430008110033",
    "sourcePath": "c:/Users/dzeni/Desktop/Skola/Year 3/1. sem/Blockchain Fundamentals/Nethereum tutorial/Remix Contracts/contracts/StoreDocumentTutorial.sol",
    "compiler": {
        "name": "solc",
        "version": "0.8.17+commit.8df45f5f"
    },
    "functionHashes": {
        "StoreDocument(bytes32,string,string)": "4a75c0ff",
        "documents(bytes32,uint256)": "79c17cc5"
    },
    "gasEstimates": {
        "creation": {
            "codeDepositCost": "302600",
            "executionCost": "343",
            "totalCost": "302943"
        },
        "external": {
            "StoreDocument(bytes32,string,string)": "infinite",
            "documents(bytes32,uint256)": "infinite"
        }
    }
}